:200000001CC036C035C034C033C032C0ECC030C02FC02EC02DC059C52BC02AC029C028C016
:2000200027C037C125C0A2C1A7C1ACC1B1C1B6C1BBC1C0C1C5C1CAC1CFC111241FBECFE577
:20004000D4E0DEBFCDBF10E0A0E6B0E0ECE7FEE002C005900D92A63BB107D9F721E0A6EB1B
:20006000B0E001C01D92AB34B207E1F702D404C7C7CF86B1866086B93E9A379A369A369935
:20008000FECF84B185B1089597B18F71907E982B97B9379A85E090E020E030E0369A3699CD
:2000A000FECF64B145B150E0542F4427460F511D240F351F0197009789F7ADECBCEC9DD69D
:2000C000969587959695879508951FBC88E08EBD8EB583608EBD8CE790E09BBD8ABD80E113
:2000E00089BF0895EF920F931F938B9A939A8C9A9498B99ABA9AB89A8F9A8E9A96988D9805
:200100008A98929A909A919AE0DFB3DF0F2EF1E4EF2EF02D01E010E028E030E04EE460E83C
:2001200075E280E090E008D485E790E0A5D480E382B986B78F7D86BF86B7856486BF8FEF52
:200140008093CC001092440178941F910F91EF900895E0916000F091610009950895809162
:20016000CD00813141F18039C1F18031C1F58091CC008230B9F581E08093B8008091CE00B4
:20018000882379F02091CE0030E0C901880F991F220F331F220F331F220F331F820F931FD7
:2001A00002C08CE291E09093B7008093B6008FEF8093CC0008958091CC00833099F4209133
:2001C000CE008091CF0090E0922B90936300809362008FEF8093CC000895BBDF08958FEF9A
:2001E0008093CC0008951F920F920FB60F9211242F938F939F9385990AC0809173009091F3
:2002000074000196909374008093730009C08091730090917400019790937400809373001F
:20022000809146018F5F843619F08093460129C0109246018091BC00811103C081E08093F3
:20024000BC008091B9009091BA00873E23E0920731F001969093BA008093B90004C0109215
:20026000BA001092B9008091730090917400909372008093710088EE93E0909374008093A4
:2002800073009F918F912F910F900FBE0F901F9018951F920F920FB60F9211242F933F93F3
:2002A0004F935F936F937F938F939F93AF93BF93EF93FF9381B1887F803A09F4BEC028F4D0
:2002C000803641F0803849F0BBC0883A99F1883B89F1B6C085EC86BFB5C093B11092440176
:2002E0008091CC008F3F69F41092CC00E091CC0081E08E0F8093CC00F0E0E353FF4F908307
:200300000EC08091CC00883050F4E091CC0081E08E0F8093CC00F0E0E353FF4F90838091A4
:20032000CC00883018F08FEF8093CC0018DF85EC86BF88C0809115019091160101969093C6
:200340001601809315018091CD00813009F451C0823009F05AC08091440190E08A309105E5
:2003600008F040C0FC01ED5EFF4F09948091C4009091C50093B937C08091C4009091C50099
:2003800083B931C08091C2009091C30093B92BC08091C2009091C30083B925C08091C60093
:2003A0009091C70093B91FC08091C6009091C70083B919C08091CA009091CB0093B913C070
:2003C0008091CA009091CB0083B90DC08091C8009091C90093B907C08091C8009091C900B4
:2003E00083B901C013B8809144018F5F8093440121C0E091440181E08E0F80934401F0E0DC
:20040000EC59FF4F808183B915C080911501909116010196909316018093150180911501B7
:2004200090911601019690931601809315018091C00083B985EC86BF05C085EC86BF02C08A
:2004400085ED86BFFF91EF91BF91AF919F918F917F916F915F914F913F912F910F900FBE19
:200460000F901F9018952091C8003091C9008091C4009091C5008217930758F02091CA00CD
:200480003091CB008091C4009091C5008217930770F48091C8009091C900813A9F4088F4A5
:2004A0008091CA009091CB00813A9F4068F48091C4009091C5008D3C904148F083E090E01F
:2004C000089581E090E0089581E090E0089582E090E00895C8DF2091BD003091BE0022304E
:2004E000310509F481C03CF42115310569F02130310579F008952330310509F4E6C0243086
:20050000310509F4CDC008959093BE008093BD0008959498979820917100309172002C3420
:2005200044E0340780F038B322E0232728BBC29A2091C0002B7F2093C0002091C0002860EF
:200540002093C0001FC02538334068F4C198C29A2091C0002B7F2093C0002091C000277FC3
:200560002093C0000FC0C19A38B324E0232728BB2091C00024602093C0002091C000277F43
:200580002093C0002091C0002D7F2093C0002091C00021602093C0009093BE008093BD0042
:2005A000029731F41092B8001092B7001092B6008091B800811105C01092BA001092B9009B
:2005C00008952091B9003091BA008091B6009091B7008217930708F081C083E090E0909398
:2005E000BE008093BD000895C298C19A949A979A2091C00022602093C0002091C0002E7F38
:200600002093C0002091C000277F2093C0002091C4003091C500243E3C4030F423E030E0CD
:200620003093BE002093BD002091B80021110EC01092BA001092B900019709F04FC081E0A8
:2006400090E09093BE008093BD0008954091B9005091BA002091B6003091B7002417350761
:20066000E8F50197B1F41092B8001092B7001092B6001092BA001092B90086B78B7F86BF12
:20068000AD98A59A84E090E09093BE008093BD00089583E090E09093BE008093BD00089593
:2006A0008091B9009091BA004597C0F0A59886B7846086BF1092BA001092B90081E090E0DE
:2006C0009093BE008093BD000895949AC09A8091C00084608093C0009398FFCF089582990B
:2006E00009C08AE08093BF008091C00080628093C0000FC08091BF009FEF980F9093BF00B9
:20070000811107C01092BF008091C0008F7D8093C0008091C10090E0DDDE089581E090E004
:20072000B3DCBC0180E090E055D260934701709348018093490190934A0120E03AE94AEEC9
:2007400056E4AED220E030E040E85AE3A9D216D27093C9006093C80082E090E095DCBC0180
:2007600080E090E037D260934701709348018093490190934A0120E032E843EC56E490D269
:2007800020E030E040E859E38BD2F8D17093CB006093CA0080E090E077DCBC0180E090E084
:2007A00019D260934701709348018093490190934A0120E032E843EC56E472D220E030E025
:2007C00040E859E36DD2DAD17093C7006093C60083E090E059DCBC0180E090E0FBD120E0E7
:2007E00032E843EC56E45CD220E030E040E859E357D26093470170934801809349019093A4
:200800004A01F89460914701709148018091490190914A01B3D17093C5006093C4007894A8
:2008200086E090E031DCBC0180E090E0D3D120E034E84BE056E434D220E030E040E85AE3A8
:200840002FD260934701709348018093490190934A01F894609147017091480180914901DB
:2008600090914A018BD17093C3006093C2007894089538DCC1E08091BC008130E1F71092DF
:20088000BC008091BB008F5F8093BB00863029F41092BB0088B38C2788BB40DF02D01FDFC4
:2008A000EACF88E890E0E8D08091C4009091C500F1D084E990E0E0D086E990E0DDD0809141
:2008C000C2009091C300E6D084E990E0D5D080EA90E0D2D08091C00090E0DCD084E990E0F4
:2008E000CBD089EA90E0C8D08091CC0090E0D2D08EEA90E0C1D08091CD0090E0CBD08EEA19
:2009000090E0BAD08091B80090E0C4D08EEA90E0B3D08091B6009091B700BCD084E990E09D
:20092000ABD081EB90E0A8D08091BF0090E0B2D085E890E0A1D008958F929F92AF92BF9257
:20094000EF92FF920F931F93CF93DF93F42EE90110924101109240011092420110924301BF
:200960002AB128692AB94B015C0120E4820E22E4921E2FE0A21EB11C880C991CAA1CBB1CB3
:20098000880C991CAA1CBB1C880C991CAA1CBB1CDC01CB01880F991FAA1FBB1F880F991FA1
:2009A000AA1FBB1F9C01AD01220F331F441F551F220F331F441F551FC501B401FCD1DA0172
:2009C000C9010197A109B109492F5A2F6B2F772740BD89B985E4F81621F02FE4F21629F01D
:2009E00008C080B5806A80BD06C080B5806B80BD02C080B580BDC630D10571F01CF4259783
:200A000039F015C0C730D10559F0289769F00FC080B5806880BD0BC080B5826880BD07C093
:200A200080B5846880BD03C080B5866880BD0130110521F00230110521F006C080B580BD4C
:200A400003C080B5886880BD81E4E81203C08AB18AB901C0569ADF91CF911F910F91FF9071
:200A6000EF90BF90AF909F908F9008955D9BFECF8CB980E090E00895CF93DF93EC0188813D
:200A8000882329F02196F2DF89918111FCCFDF91CF910895CF93DF93CDB7DEB760970FB67D
:200AA000F894DEBF0FBECDBF4AE0BE016F5F7F4FB0D1CE010196E0DF60960FB6F894DEBFA5
:200AC0000FBECDBFDF91CF9108951F920F920FB60F9211242F938F939F93AF93BF93EF9337
:200AE000FF9380914201813009F4969A80914201811138C080914301811134C02CB12A3042
:200B000021F02D3011F021110DC081E080934201E0E4F1E0A081B181A85EBE4F1C92118274
:200B2000108220C08091400190914101879771F481E080934301E0E4F1E011821082019008
:200B4000F081E02DE85EFE4F10820CC0E0E4F1E0A081B181A85EBE4F2C93808191810196C2
:200B600091838083FF91EF91BF91AF919F918F912F910F900FBE0F901F90189570D088F08F
:200B80009F5790F0B92F9927B751A0F0D1F0660F771F881F991F1AF0BA95C9F712C0B130A8
:200BA00081F077D0B1E0089574C0672F782F8827B85F39F0B93FCCF3869577956795B395CD
:200BC000D9F73EF490958095709561957F4F8F4F9F4F0895E89409C097FB3EF49095809564
:200BE000709561957F4F8F4F9F4F9923A9F0F92F96E9BB279395F695879577956795B7955F
:200C0000F111F8CFFAF4BB0F11F460FF1BC06F5F7F4F8F4F9F4F16C0882311F096E911C0DA
:200C2000772321F09EE8872F762F05C0662371F096E8862F70E060E02AF09A95660F771F62
:200C4000881FDAF7880F9695879597F9089557FD9058440F551F59F05F3F71F04795880F53
:200C600097FB991F61F09F3F79F087950895121613061406551FF2CF4695F1DF08C01616AA
:200C800017061806991FF1CF86957105610508940895E894BB2766277727CB0197F90895EF
:200CA0000BD078C069D028F06ED018F0952309F05AC05FC01124EECFCADFA0F3959FD1F37A
:200CC000950F50E0551F629FF001729FBB27F00DB11D639FAA27F00DB11DAA1F649F662725
:200CE000B00DA11D661F829F2227B00DA11D621F739FB00DA11D621F839FA00D611D221FF2
:200D0000749F3327A00D611D231F849F600D211D822F762F6A2F11249F5750408AF0E1F036
:200D200088234AF0EE0FFF1FBB1F661F771F881F91505040A9F79E3F510570F014C0AACF26
:200D40005F3FECF3983EDCF3869577956795B795F795E7959F5FC1F7FE2B880F911D9695AB
:200D6000879597F9089597F99F6780E870E060E008959FEF80EC089500240A94161617065D
:200D800018060906089500240A9412161306140605060895092E0394000C11F4882352F0F8
:200DA000BB0F40F4BF2B11F460FF04C06F5F7F4F8F4F9F4F0895A1E21A2EAA1BBB1BFD01BA
:200DC0000DC0AA1FBB1FEE1FFF1FA217B307E407F50720F0A21BB30BE40BF50B661F771F89
:200DE000881F991F1A9469F760957095809590959B01AC01BD01CF010895A29FB001B39F9A
:200E0000C001A39F01D0B29F700D811D1124911D0895BB274A3031F4992322F4BDE29095FB
:200E200081959F4F01C0BB27FB015527AA27880F991FAA1FA41710F0A41B83955051B9F7C7
:200E4000A05DAA3308F0A95DA193009779F7B111B1931192CB0100C0DC01FC01672F7191D8
:200E60007723E1F7329704C07C916D9370836291AE17BF07C8F30895F894FFCF000C5802DD
:200E800076302E312E362020206B6C7500E803E80373746172742030312E30342E32303165
:200EA000350D0A00555F426174745F6D563A20000900495F35565F6D413A200053746174EC
:200EC00075733A200053443A20002C200053313A2000FFFFFFFFFFFFFFFFFFFFFFFFFFFFC3
:200EE000FFFFFFFFFFFFFFFFFFFFFFFFFFFFFFFFFFFFFFFFFFFFFFFFFFFFFFFFFFFFFFFF12
:200F0000FFFFFFFFFFFFFFFFFFFFFFFFFFFFFFFFFFFFFFFFFFFFFFFFFFFFFFFFFFFFFFFFF1
:200F2000FFFFFFFFFFFFFFFFFFFFFFFFFFFFFFFFFFFFFFFFFFFFFFFFFFFFFFFFFFFFFFFFD1
:200F4000FFFFFFFFFFFFFFFFFFFFFFFFFFFFFFFFFFFFFFFFFFFFFFFFFFFFFFFFFFFFFFFFB1
:2018000012C02CC02BC02AC029C028C073C126C025C024C023C022C021C020C01FC01EC03E
:201820001DC0BCC01BC011241FBECFE5D4E0DEBFCDBF10E0A0E6B0E0ECEDFBE102C00590BF
:201840000D92A437B107D9F720E0A4E7B0E001C01D92A83CB207E1F77FD1BEC1D1CF809106
:201860006F00833009F444C028F4813061F0823001F10895863071F1803109F44FC085305C
:2018800009F04FC041C0ECE7F0E080E090E0DC01A05ABF4F2C91219301968C309105B9F7DD
:2018A0008CE080937900109278008FEF80936F0008958091760080937C0081E08093790076
:2018C0001092780098B384E0892788BB8FEF80936F000895809176008460809376008FEF3D
:2018E0009FEF90936E0080936D0010927700089580E480937C0081E0809379001092780099
:201900008FEF80936F0008958AE08093700082E0809376008FEF80936F00089583E6809339
:201920007000089520916D0030916E0010927700E199FECF83E0F90180935700E89507B6EC
:2019400000FCFDCFF90140E061E0A42FB0E0A857BF4F5C91A1E0A40FB0E0A857BF4F8C9119
:2019600090E0982F8827850F911D0C0160935700E89511244E5F3296403439F780E48093A6
:20198000770085E0F90180935700E89507B600FCFDCF81E180935700E89508951F920F92CD
:2019A0000FB60F9211242F933F934F935F936F937F938F939F93AF93BF93EF93FF9381B1E2
:2019C000887F803A09F480C028F4803651F0803859F07DC0883A09F44DC0883B09F44AC022
:2019E00076C085EC86BF75C023B19091760092FF37C080916D0090916E00019659F430E4CE
:201A0000239FC001112490936E0080936D0085EC86BF5FC0E0917700E03408F05AC081E0B9
:201A20008E0F80937700F0E0E857FF4F20838034A1F485EC86BF76DF8FEF9FEF90936E008E
:201A400080936D0010927700809176008B7F809376008FEF80936F003CC085EC86BF39C028
:201A600080916F008F3F11F420936F00F8DE85EC86BF2FC0E091780080917900E81758F4B8
:201A8000EC3058F481E08E0F80937800F0E0E458FF4F808103C08FEF01C08FEF83B980912D
:201AA000740090917500019690937500809374008091740090917500019690937500809309
:201AC000740085EC86BF05C085EC86BF02C085ED86BFFF91EF91BF91AF919F918F917F91E8
:201AE0006F915F914F913F912F910F900FBE0F901F9018951F920F920FB60F9211248F9310
:201B00009F9398B381E0892788BB98B382E0892788BB8091710090917200892B49F0809141
:201B2000710090917200019790937200809371008091710090917200892B39F48091700079
:201B4000813019F483E6809370009F918F910F900FBE0F901F9018958BB7982F91609BBFD0
:201B600082608BBF80E682B986B7856486BF78941FBC88E08EBD8EB584608EBD88E09DE339
:201B80009BBD8ABD80E189BF789487B3876087BB81B3886181BBC098C198C2989498939AD1
:201BA00081E080937600809170008336E1F7F89416BE13BE12BE19BE1FBC1EBC85B7982F99
:201BC00091609BBF8D7F8BBFE0917A00F0917B00099580E090E00895F894FFCF43572E420E
:101BE0006F6F742076302E3100FFFFFF010400007C
:00000001FF
